:100000000C9462000C948A000C948A000C945D0598
:100010000C945D050C945D050C948A000C948A0088
:100020000C948A000C948A000C948A000C948A0028
:100030000C948A000C948A000C948A000C948A0018
:100040000C9404040C948A000C94B1020C948B025E
:100050000C948A000C948A000C948A000C948A00F8
:100060000C948A000C948A000000000025002800EF
:100070002B000000000023002600290004040404D3
:100080000404040402020202020203030303030342
:10009000010204081020408001020408102001021F
:1000A0000408102000000000240027002A0000009F
:1000B0000008000201000003040700000000000027
:1000C0000000460D11241FBECFEFD8E0DEBFCDBF2C
:1000D00011E0A0E0B1E0E6E5F0E202C005900D928B
:1000E000AC3AB107D9F722E0ACEAB1E001C01D9209
:1000F000AE39B207E1F710E0C2E6D0E004C02197C4
:10010000FE010E94BD0DC136D107C9F70E946207EA
:100110000C9429100C940000FC01918D828D98178D
:1001200061F0828DDF01A80FB11D5D968C91928DDB
:100130009F5F9F73928F90E008958FEF9FEF0895D8
:10014000FC01918D828D981731F0828DE80FF11DA1
:10015000858D90E008958FEF9FEF0895FC01918DBC
:10016000228D892F90E0805C9F4F821B91098F73B5
:10017000992708958DEF91E00E94AE0021E0892B30
:1001800009F420E0822F0895FC01848DDF01A80F7F
:10019000B11DA35ABF4F2C91848D90E001968F73AF
:1001A0009927848FA689B7892C93A089B1898C91CE
:1001B00080648C93938D848D981306C00288F38994
:1001C000E02D80818F7D80830895EF92FF920F93C1
:1001D0001F93CF93DF93EC0181E0888F9B8D8C8DF3
:1001E000981305C0E889F989808185FD24C0F62E21
:1001F0000B8D10E00F5F1F4F0F731127E02E8C8DBA
:10020000E8120CC00FB607FCFACFE889F9898081A3
:1002100085FFF5CFCE010E94C400F1CF8B8DFE018A
:10022000E80FF11DE35AFF4FF0820B8FEA89FB893B
:100230008081806207C0EE89FF896083E889F9893F
:1002400080818064808381E090E0DF91CF911F9175
:100250000F91FF90EF900895CF93DF93EC01888D7D
:100260008823C9F0EA89FB89808185FD05C0A889BA
:10027000B9898C9186FD0FC00FB607FCF5CF808140
:1002800085FFF2CFA889B9898C9185FFEDCFCE018A
:100290000E94C400E7CFDF91CF91089580E090E005
:1002A000892B29F00E94BA0081110C940000089556
:1002B0003FB7F8948091F9019091FA01A091FB0168
:1002C000B091FC0126B5A89B05C02F3F19F00196FF
:1002D000A11DB11D3FBFBA2FA92F982F8827820FCC
:1002E000911DA11DB11DBC01CD0142E0660F771F1C
:1002F000881F991F4A95D1F708952091AE0130913A
:10030000AF012817390771F49091AC018091AD01CC
:10031000981741F0E091AC01F0E0EC54FE4F808181
:1003200090E008958FEF9FEF089508951F93CF9366
:10033000DF93DC015C962D913C915D972115310591
:1003400039F481E090E013969C938E9312973DC010
:100350005196ED91FC91529750969C915097892F10
:1003600080951FB75E964C915E9741FB772770F999
:1003700041FD6095F8944081772311F0492B01C02D
:1003800048234083E9012197F1F748E0508160FF5D
:1003900002C0592B01C058235083E9012197F1F77E
:1003A0006695415099F7772321F0908189238083C6
:1003B00003C08081982B90831FBF5C968D919C9188
:1003C0005D970197F1F721E030E0C901DF91CF910E
:1003D0001F9108952091AE013091AF012817390780
:1003E00071F48091AD012091AC0190E0805C9F4F51
:1003F000821B910960E470E00E94730D089580E013
:1004000090E008952091AE013091AF01281739078F
:10041000B9F49091AC018091AD01981789F0E09109
:10042000AC01F0E0EC54FE4F80812091AC0130E053
:100430002F5F3F4F2F7333272093AC0190E0089537
:100440008FEF9FEF08950E94BA0FEF92FF920F93E4
:100450001F93CF93DF93EC017B018A016FE771E07B
:100460000E940707B701CE010E94A9061F830E83D1
:10047000DF91CF911F910F91FF90EF900895EF9230
:10048000FF920F931F93CF93DF9300D000D000D043
:10049000CDB7DEB78C01CE0101960E94FE0688E042
:1004A00090E00E94C30D7C0140E050E0BE016F5F10
:1004B0007F4F0E942502CE0101960E94F906D801C5
:1004C0008D919C9111971296ED91FC911397892B28
:1004D00011F43097D1F0F782E682D8011396FC929E
:1004E000EE921297F8018481958101969583848319
:1004F00026960FB6F894DEBF0FBECDBFDF91CF9129
:100500001F910F91FF90EF900895F801F182E08222
:10051000F382E282E7CF1F920F920FB60F9211245F
:100520002F933F934F935F936F937F938F939F93FB
:10053000AF93BF93EF93FF938DEF91E00E94C400C0
:10054000FF91EF91BF91AF919F918F917F916F91AB
:100550005F914F913F912F910F900FBE0F901F9081
:1005600018951F920F920FB60F9211242F938F930D
:100570009F93EF93FF93E0910D02F0910E02808123
:10058000E0911302F091140282FD12C090818091DB
:1005900016028F5F8F7320911702821751F0E0913E
:1005A0001602F0E0E350FE4F958F8093160201C0D3
:1005B0008081FF91EF919F918F912F910F900FBEAE
:1005C0000F901F90189590E0FC01E255FF4F349179
:1005D000FC01E057FF4F2491FC01E458FF4FE491E8
:1005E000EE2309F43BC0332339F1333091F038F472
:1005F0003130A9F0323001F584B58F7D12C037302B
:1006000091F03830A1F03430B9F4809180008F7DC2
:1006100003C0809180008F77809380000DC084B5E7
:100620008F7784BD09C08091B0008F7703C080911F
:10063000B0008F7D8093B000F0E0EE0FFF1FE8590F
:10064000FF4FA591B4918FB7F894EC91611103C05D
:1006500020952E2301C02E2B2C938FBF0895CF936E
:10066000DF9390E0FC01E057FF4F2491FC01E45838
:10067000FF4F8491882361F190E0880F991FFC015E
:10068000EC55FF4FC591D491FC01E859FF4FA5915E
:10069000B491611109C09FB7F89488812095822395
:1006A0008883EC912E230BC0623061F49FB7F894DD
:1006B0003881822F809583238883EC912E2B2C9375
:1006C0009FBF06C08FB7F894E8812E2B28838FBF79
:1006D000DF91CF9108951F93CF93DF93182FEB01F4
:1006E00061E00E942F03209711F460E004C0CF3F27
:1006F000D10539F461E0812FDF91CF911F910C94E6
:10070000E302E12FF0E0E255FF4FE491E330F9F02E
:1007100048F4E130B9F0E230A1F584B5806284BDDF
:10072000C8BD34C0E730E9F0E83019F1E43049F5EC
:1007300080918000806280938000D0938B00C09372
:100740008A0024C084B5806884BDC7BD1FC0809165
:100750008000806880938000D0938900C0938800D7
:1007600015C08091B00080688093B000C093B30042
:100770000DC08091B00080628093B000C093B4003F
:1007800005C0C038D1050CF0B5CFAFCFDF91CF9108
:100790001F9108958F929F92AF92BF92CF92DF9256
:1007A000EF92FF926B017C010E9458014B015C01AA
:1007B000C114D104E104F104F1F00E945801DC01FC
:1007C000CB0188199909AA09BB09883E9340A10564
:1007D000B10570F321E0C21AD108E108F10888EEF2
:1007E000880E83E0981EA11CB11CC114D104E10441
:1007F000F10419F7DDCFFF90EF90DF90CF90BF901D
:10080000AF909F908F9008951F920F920FB60F9206
:1008100011242F933F938F939F93AF93BF93809116
:10082000F5019091F601A091F701B091F801309196
:10083000F40123E0230F2D3720F40196A11DB11DF3
:1008400005C026E8230F0296A11DB11D2093F401D7
:100850008093F5019093F601A093F701B093F8010E
:100860008091F9019091FA01A091FB01B091FC01F6
:100870000196A11DB11D8093F9019093FA01A093F7
:10088000FB01B093FC01BF91AF919F918F913F917C
:100890002F910F900FBE0F901F901895CF93DF935D
:1008A000EC0160E070E088810E946B0360E070E022
:1008B0008A81DF91CF910C946B03CF93DF93EC018E
:1008C00060E070E088810E946B036C817D818A8189
:1008D000DF91CF910C946B0360E0FC0180810C945C
:1008E000E30261E0FC0180810C94E3020F931F930B
:1008F000CF93DF9300D000D000D0CDB7DEB78C010E
:10090000CE0101960E94FE06BE016F5F7F4FC801B7
:1009100042960E943F02CE0101960E94F906269659
:100920000FB6F894DEBF0FBECDBFDF91CF911F9100
:100930000F910895CF93DF93EC01888199810E94F4
:100940004E048A819B810E944E046EE371E0CE01C9
:100950000C960E94920664EF71E080E090E0DF91D7
:10096000CF910C94CA036F927F928F929F92AF9215
:10097000BF92CF92DF92EF92FF920F931F93CF938C
:10098000DF93EC016B01288139818A819B812817D3
:10099000390708F471C001E010E00C8002C0000FBC
:1009A000111F0A94E2F7013485E1180740F426E0AC
:1009B000209FC001219F900D1124029602C08FEF4D
:1009C0009FEF0E94C30D4C01F401019311937F012D
:1009D0003F01A12CB12CA016B10661F06FE771E0C8
:1009E000C3010E940707F6E06F0E711C8FEFA81A73
:1009F000B80AF1CFA12CB12C612C712C888199817E
:100A00006E817F816816790678F46A0D7B1DC501B9
:100A10000296880D991D0E94A906EFEF6E1A7E0AB4
:100A2000F6E0AF0EB11CEACF1B830A836115710596
:100A3000E1F0FB0132972081318146E0429FC00105
:100A4000439F900D11248B01080F191FC8012E819F
:100A50003F81065011098217930721F0C8010E94B7
:100A6000F906F4CF02970E94580EFF82EE828C8125
:100A70009D8101969D838C834E815F812881398180
:100A8000C90101969983888366E0629FC001639FD4
:100A9000900D1124B601840F951FDF91CF911F9106
:100AA0000F91FF90EF90DF90CF90BF90AF909F900D
:100AB0008F907F906F900C94A9061F920F920FB6A3
:100AC0000F9211242F933F934F935F936F937F93D4
:100AD0008F939F93AF93BF93EF93FF93E091AE01FA
:100AE000F091AF01309709F451C0968DA685B78576
:100AF000858591FF04C09C91892329F447C09C916E
:100B0000892309F043C0A389B4899C918589809584
:100B100089238C93868997890197F1F7608D718D70
:100B2000A685B785558538E020E0CB010197F1F720
:100B3000822F90E095958795282F4C91452309F0B9
:100B40002068315091F7868D81FD20958091AD010F
:100B500090E001968F7399273091AC01381749F0D6
:100B6000A091AD01B0E0AC54BE4F2C938093AD0189
:100B700003C0868D8160868F828D938D0197F1F7FA
:100B8000A389B4899C918589892B8C93FF91EF91DE
:100B9000BF91AF919F918F917F916F915F914F9195
:100BA0003F912F910F900FBE0F901F9018950895B1
:100BB000CF92DF92EF92FF920F931F93CF93DF9329
:100BC0006C017A018B01C0E0D0E0CE15DF0589F021
:100BD000D8016D918D01D601ED91FC910190F081CC
:100BE000E02DC6010995892B11F47E0102C02196E2
:100BF000ECCFC701DF91CF911F910F91FF90EF9044
:100C0000DF90CF900895CF93DF93EC018881998195
:100C1000009711F00E94580E198218821D821C82C2
:100C20001B821A82DF91CF910895EF92FF920F936A
:100C30001F93CF93DF93EC017B018A018881998117
:100C4000009729F02A813B8124173507B0F4B801B9
:100C50006F5F7F4F0E94F00E009759F09983888351
:100C60001B830A832C813D81232B39F4FC011082E4
:100C700004C0CE010E94030607C01D830C83B70188
:100C8000888199810E94D10FCE01DF91CF911F9170
:100C90000F91FF90EF900895009769F0FC0101908B
:100CA0000020E9F73197AF01481B590BBC018DEFCC
:100CB00091E00C94D80580E090E00895CF93DF9305
:100CC000FC0144815581608171818DEF91E00E942A
:100CD000D805EC018DE791E00E944C068C0F9D1F1A
:100CE000DF91CF910895FC0124813581232B31F4CC
:100CF00021E061157105A1F0FB0108C0FC018081B4
:100D000091816115710531F421E0FC018081882316
:100D100039F005C00E94C80F21E0892B09F020E0BE
:100D2000822F0895CF93DF93EC016115710559F07F
:100D3000FB0101900020E9F73197AF01461B570BEB
:100D40000E94150602C00E940306CE01DF91CF91DA
:100D50000895CF93DF93EC01FB018617970761F0AD
:100D6000608171816115710529F0448155810E946E
:100D7000150602C00E940306CE01DF91CF910895AF
:100D80000F931F93CF93DF938C01EB01FC018081C4
:100D900091810097B1F0688179816115710579F0D1
:100DA000428153812C813D814217530740F00E94BC
:100DB000D10F8C819D81F8019583848313C00E949B
:100DC000580E88819981F801918380838A819B8163
:100DD000938382838C819D81958384831982188279
:100DE0001B821A821D821C82DF91CF911F910F916D
:100DF0000895FC01808191810C94580EFC011182B0
:100E0000108213821282158214820C94A906FC01AE
:100E1000118210821382128215821482611571056B
:100E200051F0FB0101900020E9F73197AF01461B1B
:100E3000570B0C9415060895BF92CF92DF92EF9254
:100E4000FF920F931F93CF93DF937C016B018A0175
:100E5000E9012417350720F4812F8901C42FD82FE9
:100E60006FE771E0C7010E940707D60114968D91C4
:100E70009C91159708171907D0F48C179D0708F453
:100E8000EC01D601ED91FC911197EC0FFD1FB080A4
:100E900010824D915C91BA01600F711FC7010E94D1
:100EA0009206D601ED91FC91EC0FFD1FB082C701B7
:100EB000DF91CF911F910F91FF90EF90DF90CF9036
:100EC000BF900895CF93DF93CDB7DEB7E3970FB60A
:100ED000F894DEBF0FBECDBF789484B5826084BD28
:100EE00084B5816084BD85B5826085BD85B581602E
:100EF00085BD80916E00816080936E0010928100AC
:100F00008091810082608093810080918100816066
:100F10008093810080918000816080938000809127
:100F2000B10084608093B1008091B00081608093B3
:100F3000B00080917A00846080937A0080917A007A
:100F4000826080937A0080917A00816080937A0039
:100F500080917A00806880937A001092C100E091BD
:100F60000D02F0910E0282E08083E0910902F0917F
:100F70000A021082E0910B02F0910C0283E380835D
:100F800010921502E0911102F091120286E0808326
:100F9000E0910F02F0911002808180618083E091E6
:100FA0000F02F0911002808188608083E0910F022F
:100FB000F0911002808180688083E0910F02F091AF
:100FC000100280818F7D808389E190E00E94C30DB3
:100FD0007C018C01045F1F4F6FE771E0C8010E9424
:100FE0000707D70153961C921E92529755961C9252
:100FF0001E92549757961C921E9256976EE371E07C
:10100000C8010E94920686E090E00E94C30D8C0108
:1010100083E090E0F8019183808385E090E0938302
:1010200082838FEA90E09583848361E083E00E946D
:101030002F0361E0D80112968C910E942F03F701D3
:101040001183008386E090E00E94C30D8C018AE04A
:1010500090E0D80111969C938E938BE090E01396CC
:101060009C938E9312978BE990E015969C938E93A8
:10107000149761E08AE00E942F0361E0F801828109
:101080000E942F03D70113961C930E93129782E0B0
:1010900090E00E94C30D8C0186E090E0F8019183FE
:1010A000808361E00E942F03D70117961C930E9353
:1010B000169782E090E00E94C30D8C018CE090E0D6
:1010C000F8019183808361E00E942F03D701199674
:1010D0001C930E93189782E090E00E94C30D8C0140
:1010E0008DE090E0F8019183808361E00E942F03FE
:1010F000D7011B961C930E931A9785E790E00E94E8
:10110000C30D6C01FC01EE58FF4F108288E090E0A7
:10111000F6019383828389E090E091838083ED5888
:10112000FF4FF182E0828FE190E00E94C30D8C01BD
:10113000DC0113961C921E92129788EE93E0A0E0B9
:10114000B0E0F80184839583A683B7838AE091E0B9
:1011500091838083178A168A118E108E138E128EB9
:10116000158E148E668D6E7F6D7F668F66956170AD
:1011700081E0682789E00E94E30261E089E00E9443
:101180002F03E9E9F0E0E491D8015096EC93E5E80B
:10119000F0E0E491F0E0EE0FFF1FE859FF4F85917A
:1011A0009491F801928B818B60E088E00E942F037C
:1011B000D8015E968C9181FD04C061E088E00E94B8
:1011C000E30288E0F8018487E8E9F0E0E491D801DF
:1011D0001D96EC93E4E8F0E0E491F0E0EE0FFF1FE1
:1011E000EE58FF4F85919491F80197878687D60135
:1011F00017961C930E93169785E690E0958F848F33
:1012000021E230E0378B268B23E630E0318F208FD0
:1012100022E430E0338F228F2091680021602093F8
:1012200068002BE630E0348B238B21E0258B01977F
:10123000F1F7828D938D892B49F1E091AE01F09108
:10124000AF01E017F10711F1309739F0A389B489A4
:101250009C918589809589238C93D8015E968C9189
:101260005E978E7F5E968C935E971092AD01109282
:10127000AC011093AF010093AE015396ED91FC9138
:101280005497908155968C91892B8083F601158215
:101290001482D7011596DC92CE921497F092B30186
:1012A000E092B2011696ED91FC91179761E0808172
:1012B0000E94E302F701808591850E946C04D701AA
:1012C0001A968D919C911B970E946C04F701808166
:1012D00091810E944E04D70112968D919C91139793
:1012E0000E944E048BE9282E312C9AE0492E512C75
:1012F000612C712CE091B201F091B301E480F58092
:10130000F70186819781DC01ED91FC910480F581E4
:10131000E02D099587010E581F4F892B69F1F701C0
:1013200086819781DC01ED91FC910680F781E02DAB
:1013300009959091B1019923D1F09091B0018E332C
:1013400051F09436C8F4F701E90FF11D80879F5FD3
:101350009093B00111C0F701E90FF11D10861092B2
:10136000B1011092B00181E0F801808305C08C3397
:1013700019F481E08093B101D8018C91882309F49C
:10138000FCC01C92B701685F7F4FCE018E960E9411
:10139000070763E471E0CE0101960E9407078AA95E
:1013A0009BA9892B69F0CEA4DFA469817A81C6014B
:1013B0000E94D80F009721F08C010C191D0902C062
:1013C0000FEF1FEFCE0101960E94F9061C821B82CF
:1013D0001A82198218861F821E821D826FE771E0B1
:1013E000CE0188960E940707CE018E960E945E0667
:1013F000C12CD12C0F3FEFEF1E0709F440C098011C
:10140000A601BE01625D7F4FCE0182960E941C073D
:10141000BE016E5D7F4FCE0188960E94C006CE0150
:1014200082960E94F906BE01685D7F4FCE0101964B
:101430000E94B3046801BFEFCB1ADB0A63E471E0DA
:10144000CE0182960E9407078AA99BA9C816D906D1
:1014500078F48EA49FA46AA17BA1C4018C0D9D1D6C
:101460000E94D80F009721F08C010819190902C0B9
:101470000FEF1FEFCE0182960E94F906BBCF2AA97B
:101480003BA9A601BE01625D7F4FCE0182960E94FC
:101490001C07BE016E5D7F4FCE0101960E94B30412
:1014A000CE0182960E94F906CE0188960E94F90626
:1014B000CE018E960E94F90600E010E06701F3E786
:1014C000CF0ED11C6F817885600F711FCE01889679
:1014D0000E94FE06E8A4F9A4B70185E491E00E9409
:1014E000C80F892B09F4C0C2B7018DE491E00E94B6
:1014F000C80F892B09F4B8C2B70182E591E00E94B8
:10150000C80F892B09F4B0C2B70188E591E00E94A9
:10151000C80F892B09F4A8C2B7018EE591E00E949B
:10152000C80F892B09F4A0C2CE0188960E94F90643
:101530000A5F1F4F0E31110529F60F81188501151D
:101540001105D9F0F80132972081318146E0429FA0
:10155000C001439F900D1124080F191FC8012F814E
:101560003885065011098217930721F0C8010E949F
:10157000F906F4CF02970E94580E0091B201109123
:10158000B3016FE771E0CE0188960E9407077801EA
:101590008CE0E80EF11C6EE371E0C7010E94730657
:1015A000882309F45AC266E671E0C7010E949206D8
:1015B000D80156968D919C915797181619060CF0E4
:1015C000CBC052966D917C915397CE0101960E94AB
:1015D000FE06F801C288D388D60116968D919C919B
:1015E0001797009719F0938B828B05C0F801138A27
:1015F000128A158A148AC114D10459F0D60117969B
:101600001C921E921697C6010E94F906C6010E94FE
:10161000580EF801868997890197978B868B1BA2B4
:101620001AA21DA21CA21FA21EA2BE016F5F7F4FA5
:10163000CE0182960E94C006CE0101960E94F90654
:10164000D8015296CD90DC9053978BE691E00E94A2
:101650004C068DE791E00E944C06C114D104C9F0FC
:10166000B601CE0101960E94FE064D815E81698120
:101670007A818DEF91E00E94D805CE0101960E94FB
:10168000F90680E891E00E944C06F601C680D780FA
:10169000E4CF83E891E00E944C06D80156962D9144
:1016A0003C9157974901330FAA08BB08B7FE26C0E3
:1016B000E091FD01F091FE010190F081E02D6DE2DD
:1016C0008DEF91E0099522273327A90128193909BF
:1016D0004A095B0919A2FE01B1966F01CA01B9015D
:1016E000A30192010E94870D605DD6016E936D018A
:1016F000211531054105510589F715C0A501940152
:1017000019A2FE01B1966F01CA01B901A3019201AC
:101710000E94870D605DD6016E936D012115310524
:101720004105510589F7C6010E944C068DE791E0FD
:101730000E944C061A8219821C821B821E821D8204
:10174000BE016E5D7F4FCE0101960E94C006CE01A4
:1017500082960E94F90606C06FE771E0CE010196FD
:101760000E940707BE016F5F7F4FCE0188960E94DF
:10177000C006CE0101960E94F9066FE771E0CE0126
:1017800088960E947306811163C180E991E00E94EE
:101790004C06CE0188960E945E0665E471E0CE019B
:1017A00088960E947306882309F44DC065E471E0B1
:1017B000C7010E949206D801ED91FC9111978FEA22
:1017C00090E0958384831296ED91FC9113978DE9B7
:1017D00090E0958384831A968D919C911B970E942B
:1017E0007104F801808191810E945D04D8011296F4
:1017F0008D919C9113970E945D0464EA76E080E0ED
:1018000090E00E94CA03F801808191810E944E04F9
:10181000D80112968D919C9113970E944E04F80165
:10182000828593850E946C0464EF71E080E090E013
:101830000E94CA038EE991E00E944C068DE791E078
:101840000E944C0605C162E571E0CE0188960E94B7
:101850007306882309F445C062E571E0C7010E9460
:101860009206D801ED91FC91119789EB90E0958358
:1018700084831296ED91FC911397358224821A96F7
:101880008D919C911B970E947104D8018D919C9120
:101890000E945D04F801C280D380D60114966D9138
:1018A0007C9115978C910E946B0360E070E0F601CB
:1018B00082810E946B0366E475E080E090E00E9404
:1018C000CA03D8018D919C910E944E04F801828137
:1018D00093810E944E04D8011A968D919C911B977A
:1018E0004CC06DE471E0CE0188960E947306882397
:1018F00009F44CC06DE471E0C7010E949206F80142
:10190000828593850E947104D801CD90DC90119757
:10191000F601358224821296ED91FC91139789EBA2
:1019200090E095838483D60114966D917C911597F0
:101930008C910E946B0360E070E0F60182810E944E
:101940006B03D80112968D919C9113970E945D04B0
:1019500066E475E080E090E00E94CA03F8018081AF
:1019600091810E944E04D80112968D919C911397FB
:101970000E944E04F801828593850E946C0464EFF6
:1019800071E080E090E00E94CA0362C068E571E007
:10199000CE0188960E947306882309F44EC0C801C0
:1019A0000E949A04D8011696ED91FC91179760E079
:1019B00080810E94E302F801808591850E94710474
:1019C00062EC71E080E090E00E94CA03D8011696B4
:1019D000ED91FC91179761E080810E94E302F8018C
:1019E000808591850E946C0462E370E080E090E065
:1019F0000E94CA03D8011696ED91FC91179760E0FA
:101A000080810E94E302F801828593850E9471041F
:101A100062EC71E080E090E00E94CA03D801169663
:101A2000ED91FC91179761E080810E94E302F8013B
:101A3000828593850E946C040BC06EE571E0CE0137
:101A400088960E947306882319F0C8010E949A04A0
:101A50006EE371E0C7010E949206CE0188960E9453
:101A6000F9060E944E0146CCB701CE0182960E9433
:101A70000707BE016E5D7F4FD6018D919C910E943C
:101A80007604CE0182960E94F9064ECDEDEFF1E08C
:101A90001382128288EE93E0A0E0B0E08483958305
:101AA000A683B78382E391E09183808385EC90E005
:101AB0009587848784EC90E09787868780EC90E018
:101AC000918B808B81EC90E0938B828B82EC90E009
:101AD000958B848B86EC90E0978B868B118E128E83
:101AE000138E148E089597FB072E16F4009407D0DA
:101AF00077FD09D00E94A90D07FC05D03EF4909512
:101B000081959F4F0895709561957F4F0895A1E24B
:101B10001A2EAA1BBB1BFD010DC0AA1FBB1FEE1F67
:101B2000FF1FA217B307E407F50720F0A21BB30BB2
:101B3000E40BF50B661F771F881F991F1A9469F72E
:101B400060957095809590959B01AC01BD01CF018A
:101B50000895AA1BBB1B51E107C0AA1FBB1FA617F4
:101B6000B70710F0A61BB70B881F991F5A95A9F746
:101B700080959095BC01CD010895EE0FFF1F059053
:101B8000F491E02D0994CF93DF938230910510F406
:101B900082E090E0E0919C02F0919D0220E030E034
:101BA000C0E0D0E0309711F14081518148175907CA
:101BB000C0F04817590761F482819381209719F08A
:101BC0009B838A832BC090939D0280939C0226C0A6
:101BD0002115310519F04217530718F49A01BE0177
:101BE000DF01EF010280F381E02DDCCF211531050B
:101BF00009F1281B390B2430310590F412968D9190
:101C00009C9113976115710521F0FB0193838283E9
:101C100004C090939D0280939C02FD01329644C0C3
:101C2000FD01E20FF31F81939193225031092D930F
:101C30003C933AC020919A0230919B02232B41F4AD
:101C4000209102013091030130939B0220939A026C
:101C500020910001309101012115310541F42DB78A
:101C60003EB74091040150910501241B350BE091D2
:101C70009A02F0919B02E217F307A0F42E1B3F0B90
:101C80002817390778F0AC014E5F5F4F24173507EE
:101C900048F04E0F5F1F50939B0240939A0281932E
:101CA000919302C0E0E0F0E0CF01DF91CF91089581
:101CB0000F931F93CF93DF93009709F48CC0FC011F
:101CC00032971382128200919C0210919D0201159D
:101CD000110581F420813181820F931F20919A0296
:101CE00030919B022817390779F5F0939B02E09316
:101CF0009A0271C0D80140E050E0AE17BF0750F41F
:101D000012962D913C911397AD012115310509F1E2
:101D1000D901F3CF9D01DA01338322836081718180
:101D2000860F971F8217930769F4EC012881398188
:101D3000260F371F2E5F3F4F318320838A819B817F
:101D400093838283452B29F4F0939D02E0939C02B8
:101D500042C01396FC93EE931297ED01499159916D
:101D60009E01240F351FE217F30771F480819181E2
:101D7000840F951F029611969C938E938281938176
:101D800013969C938E931297E0E0F0E0D8011296A0
:101D90008D919C911397009719F0F8018C01F6CF63
:101DA0008D919C9198012E5F3F4F820F931F209140
:101DB0009A0230919B022817390769F4309729F469
:101DC00010929D0210929C0202C013821282109304
:101DD0009B0200939A02DF91CF911F910F9108957A
:101DE000A0E0B0E0E6EFFEE00C94F60FEC01009707
:101DF00021F4CB010E94C30DB8C0FC01E60FF71F10
:101E00009C0122503109E217F30708F4ACC0D90154
:101E10000D911C91119706171707B0F005301105A9
:101E200008F49FC0C80104978617970708F499C063
:101E300002501109061B170B019311936D937C93AC
:101E4000CF010E94580E8DC05B01A01AB10A4C014F
:101E5000800E911EA0919C02B0919D0240E050E046
:101E6000E12CF12C109709F44AC0A815B905D1F559
:101E70006D907C901197630182E0C80ED11CCA144A
:101E8000DB0480F1A3014A195B096A0182E0C80EF4
:101E9000D11C1296BC9012971396AC91B5E0CB165C
:101EA000D10440F0B282A38351834083D9016D9362
:101EB0007C930AC00E5F1F4FC301800F911FF90171
:101EC00091838083EB2DFA2FE114F10431F0D701D7
:101ED0001396FC93EE93129744C0F0939D02E09307
:101EE0009C023FC08D919C9111974817590708F4A7
:101EF000AC017D0112960D90BC91A02DB3CF8091C5
:101F00009A0290919B0288159905E1F446175707AC
:101F1000C8F48091000190910101009741F48DB7C0
:101F20009EB74091040150910501841B950BE81761
:101F3000F907C8F4F0939B02E0939A02F9017183C8
:101F400060830FC0CB010E94C30D7C01009759F044
:101F5000A801BE010E94BF0FCE010E94580EC7010A
:101F600004C0CE0102C080E090E0CDB7DEB7EEE065
:101F70000C94121081E090E0F8940C942910FB016D
:101F8000DC0102C001900D9241505040D8F70895F5
:101F9000FB01DC018D91019080190110D9F3990B9F
:101FA0000895FB01DC0101900D920020E1F70895F6
:101FB000FB0151915523A9F0BF01DC014D9145175B
:101FC0004111E1F759F4CD010190002049F04D9104
:101FD00040154111C9F3FB014111EFCF81E090E0C1
:101FE000019708952F923F924F925F926F927F9246
:101FF0008F929F92AF92BF92CF92DF92EF92FF9219
:102000000F931F93CF93DF93CDB7DEB7CA1BDB0BC4
:102010000FB6F894DEBF0FBECDBF09942A88398869
:1020200048885F846E847D848C849B84AA84B98470
:10203000C884DF80EE80FD800C811B81AA81B9817C
:10204000CE0FD11D0FB6F894DEBF0FBECDBFED0190
:062050000895F894FFCF93
:1020560000009E028000000000009601D805EA01FB
:1020660002027D019501000000002302D80523022B
:10207600230223022302000000002302D8050000E9
:102086000000E500D805AE008C00A0002C015354DA
:102096004F50002C00464F5257415244004C454683
:1020A60054005249474854004552524F52004E4F31
:1020B6005448494E47005741495400517565756566
:1020C60020636F6E7461696E732E2E2E000D0A00EA
:1020D6002C200051756575652073697A653A200074
:1020E600496E737472756374696F6E3A2000676F18
:0C20F600696E6720666F7277617264008B
:00000001FF
