:100000000C945D000C9485000C9485000C94850084
:100010000C9485000C9485000C9485000C9485004C
:100020000C9485000C9485000C9485000C9485003C
:100030000C9485000C9485000C9485000C9485002C
:100040000C94A3030C9485000C9471030C944B0343
:100050000C9485000C9485000C9485000C9485000C
:100060000C9485000C94850000000008000201003B
:100070000003040700000000000000000000000072
:10008000250028002B0000000000240027002A0083
:10009000040404040404040402020202020203032E
:1000A0000303030301020408102040800102040836
:1000B0001020010204081020D80511241FBECFEF24
:1000C000D8E0DEBFCDBF11E0A0E0B1E0E2ECFEE0A1
:1000D00002C005900D92AC34B107D9F722E0ACE430
:1000E000B1E001C01D92A933B207E1F710E0CDE500
:1000F000D0E004C02197FE010E940506CC35D1074F
:10010000C9F70E94ED030C945F070C940000E8E926
:10011000F1E0A089B18982E08C93A485B5851C9219
:10012000A685B7858FEC8C93108EA489B58986E05F
:100130008C93A289B3898C9180618C93A289B389B5
:100140008C9188608C93A289B3898C9180688C9300
:100150000288F389E02D80818F7D8083089590E06F
:10016000FC01EC55FF4F2491FC01E057FF4F8491B7
:10017000882399F090E0880F991FFC01EA57FF4F00
:10018000A591B491FC01E458FF4F859194918FB7EC
:10019000F894EC91E22BEC938FBF0895CF92DF920D
:1001A000EF92FF920F931F93CF93DF936C017A012D
:1001B0008B01C0E0D0E0CE15DF0589F0D8016D914C
:1001C0008D01D601ED91FC910190F081E02DC601E9
:1001D0000995892B11F47E0102C02196ECCFC7014D
:1001E000DF91CF911F910F91FF90EF90DF90CF9013
:1001F0000895FC01918D828D981761F0828DDF0149
:10020000A80FB11D5D968C91928D9F5F9F73928F09
:1002100090E008958FEF9FEF0895FC01918D828DFE
:10022000981731F0828DE80FF11D858D90E00895CB
:100230008FEF9FEF0895FC01918D228D892F90E023
:10024000805C9F4F821B91098F739927089588E9DD
:1002500091E00E941B0121E0892B09F420E0822F0C
:100260000895FC01848DDF01A80FB11DA35ABF4F73
:100270002C91848D90E001968F739927848FA689A5
:10028000B7892C93A089B1898C9180648C93938DCC
:10029000848D981306C00288F389E02D80818F7DBC
:1002A00080830895EF92FF920F931F93CF93DF9374
:1002B000EC0181E0888F9B8D8C8D981305C0E889B7
:1002C000F989808185FD24C0F62E0B8D10E00F5F2B
:1002D0001F4F0F731127E02E8C8DE8120CC00FB644
:1002E00007FCFACFE889F989808185FFF5CFCE0137
:1002F0000E943101F1CF8B8DFE01E80FF11DE35A11
:10030000FF4FF0820B8FEA89FB898081806207C0F2
:10031000EE89FF896083E889F98980818064808320
:1003200081E090E0DF91CF911F910F91FF90EF90CE
:100330000895CF93DF93EC01888D8823C9F0EA8973
:10034000FB89808185FD05C0A889B9898C9186FDCE
:100350000FC00FB607FCF5CF808185FFF2CFA889CB
:10036000B9898C9185FFEDCFCE010E943101E7CF95
:10037000DF91CF91089580E090E0892B29F00E94D1
:10038000270181110C940000089590E0FC01E859C8
:10039000FF4F3491FC01EC55FF4F2491FC01E057D5
:1003A000FF4FE491EE2309F43BC0332339F133309E
:1003B00091F038F43130A9F0323001F584B58F7DF9
:1003C00012C0373091F03830A1F03430B9F4809158
:1003D00080008F7D03C0809180008F7780938000A4
:1003E0000DC084B58F7784BD09C08091B0008F7730
:1003F00003C08091B0008F7D8093B000F0E0EE0FDD
:10040000FF1FE458FF4FA591B4918FB7F894EC917A
:10041000611103C020952E2301C02E2B2C938FBF7A
:1004200008953FB7F8948091510190915201A091A5
:100430005301B091540126B5A89B05C02F3F19F078
:100440000196A11DB11D3FBFBA2FA92F982F882754
:10045000820F911DA11DB11DBC01CD0142E0660FAF
:10046000771F881F991F4A95D1F708958F929F9201
:10047000AF92BF92CF92DF92EF92FF926B017C011D
:100480000E9411024B015C01C114D104E104F1048A
:10049000F1F00E941102DC01CB0188199909AA0927
:1004A000BB09883E9340A105B10570F321E0C21A53
:1004B000D108E108F10888EE880E83E0981EA11C9F
:1004C000B11CC114D104E104F10419F7DDCFFF9090
:1004D000EF90DF90CF90BF90AF909F908F90089556
:1004E0002FB7F89460914D0170914E0180914F01AA
:1004F000909150012FBF08950E9438076115710532
:1005000079F0FB0101900020E9F73197AF01461B1C
:10051000570BDC01ED91FC910280F381E02D0994F1
:1005200080E090E008954F925F926F927F92EF92F9
:10053000FF920F931F93CF93DF93CDB7DEB7A197B1
:100540000FB6F894DEBF0FBECDBF7C01FA01CB0120
:1005500019A2223008F42AE08E010F5D1F4F422EAF
:10056000512C612C712CBF01A30192010E943D0707
:10057000F901CA01015011096A3014F4605D01C02B
:10058000695CD8016C93232B242B252B61F7B801D0
:10059000C7010E947E02A1960FB6F894DEBF0FBE7F
:1005A000CDBFDF91CF911F910F91FF90EF907F9082
:1005B0006F905F904F9008950F931F93CF93DF93A9
:1005C0008C01FC01C0818C2F0E94AF0060E08C2F59
:1005D0000E94C501F801C481D58102811381802F59
:1005E0000E94AF00209709F447C0CF3FD10509F41E
:1005F00045C0F801FF27E859FF4FE491E330F9F0D7
:1006000048F4E130B9F0E230A1F584B5806284BDF0
:10061000C8BD3CC0E730E9F0E83019F1E43049F5F5
:1006200080918000806280938000D0938B00C09383
:100630008A002CC084B5806884BDC7BD27C0809166
:100640008000806880938000D0938900C0938800E8
:100650001DC08091B00080688093B000C093B3004B
:1006600015C08091B00080628093B000C093B40048
:100670000DC0C038D10514F460E001C061E0802FE6
:10068000DF91CF911F910F910C94C501DF91CF9114
:100690001F910F9108951F920F920FB60F92112480
:1006A0002F933F934F935F936F937F938F939F937A
:1006B000AF93BF93EF93FF9388E991E00E943101DC
:1006C000FF91EF91BF91AF919F918F917F916F912A
:1006D0005F914F913F912F910F900FBE0F901F9000
:1006E00018951F920F920FB60F9211242F938F938C
:1006F0009F93EF93FF93E091A801F091A90180816E
:10070000E091AE01F091AF0182FD12C09081809125
:10071000B1018F5F8F732091B201821751F0E09188
:10072000B101F0E0E856FE4F958F8093B10101C012
:100730008081FF91EF919F918F912F910F900FBE2C
:100740000F901F9018951F920F920FB60F921124C1
:100750002F933F938F939F93AF93BF9380914D01BE
:1007600090914E01A0914F01B091500130914C01F8
:1007700023E0230F2D3720F40196A11DB11D05C0E4
:1007800026E8230F0296A11DB11D20934C018093F2
:100790004D0190934E01A0934F01B0935001809171
:1007A000510190915201A0915301B09154010196D1
:1007B000A11DB11D8093510190935201A09353014B
:1007C000B0935401BF91AF919F918F913F912F9121
:1007D0000F900FBE0F901F901895789484B582608B
:1007E00084BD84B5816084BD85B5826085BD85B5D5
:1007F000816085BD80916E00816080936E00109253
:1008000081008091810082608093810080918100CD
:10081000816080938100809180008160809380005E
:100820008091B10084608093B1008091B0008160BC
:100830008093B00080917A00846080937A008091E8
:100840007A00826080937A0080917A008160809340
:100850007A0080917A00806880937A001092C100BB
:1008600010928C0110928D0110928E0110928F01C6
:1008700010925A0110925B0110925C0110925D017E
:1008800060ED77E080E090E00E94360288E991E038
:1008900090938B0180938A010E9487000E947002CE
:1008A00000915A0110915B0120915C0130915D0132
:1008B000DC01CB01801B910BA20BB30BC297A105EE
:1008C000B10538F463E070E080E090E00E94360209
:1008D000E5CF0E94700260935A0170935B01809390
:1008E0005C0190935D0166E171E080918A019091D5
:1008F0008B010E947E026AE070E080E090E00E943E
:10090000360281E080935E0186E090E00E940B0653
:10091000EC0183E090E09983888385E090E09B83FD
:100920008A830FE510E01D830C8383E00E94AF00F3
:100930008A810E94AF00D0935801C093570186E08E
:1009400090E00E940B06EC0186E090E0998388839A
:1009500089E090E09B838A831D830C8386E00E945C
:10096000AF008A810E94AF00D0935601C093550119
:100970000E9487000E947002672B682B692B09F088
:1009800067C00E947002623071058105910508F010
:100990005FC03DC00E94700260935A0170935B017A
:1009A00080935C0190935D0168E271E080918A011F
:1009B00090918B010E947E0260E371E080918A0138
:1009C00090918B010E947E020E947002AB01BC01DB
:1009D0002AE080918A0190918B010E94930262E348
:1009E00071E080918A0190918B010E947E0265E006
:1009F00070E080E090E00E9436026AE070E080E003
:100A000090E00E94360280915E0181117AC080914F
:100A10005701909158010E94DC02809155019091FC
:100A200056010E94DC0268EE73E080E090E00E94D4
:100A300036026EE271E088E991E00E947E0268E48D
:100A400071E088E991E00E947E020E94BB0192CF92
:100A50000E947002609394017093950180939601B7
:100A60009093970100919001109191012091920132
:100A700030919301601771078207930740F46093E8
:100A80009001709391018093920190939301009152
:100A900090011091910120919201309193016B018D
:100AA0007C01C01AD10AE20AF30A970186010A3FC3
:100AB00011052105310508F4AACF609390017093C8
:100AC000910180939201909393010E947002009192
:100AD0005A0110915B0120915C0130915D01DC01B4
:100AE000CB01801B910BA20BB30BC297A105B105E3
:100AF00008F050CF63E070E080E090E00E943602A2
:100B0000E4CF80918A0190918B01DC01ED91FC9101
:100B10000480F581E02D0995892B99F380918A0154
:100B200090918B01DC01ED91FC910480F581E02D29
:100B30000995181619060CF06ACF80918A019091D8
:100B40008B01DC01ED91FC910680F781E02D099588
:100B500099278336910551F08637910509F457CFCF
:100B600088359105D9F610925E01D8CF6BE371E01C
:100B700080918A0190918B010E947E022AE041E0DF
:100B800050E060E070E080918A0190918B010E94BA
:100B9000930262E471E080918A0190918B010E943E
:100BA0007E0262E370E080E090E00E9436022FCF88
:100BB000E8E9F1E01382128288EE93E0A0E0B0E071
:100BC00084839583A683B7838AE091E091838083B1
:100BD00085EC90E09587848784EC90E09787868702
:100BE00080EC90E0918B808B81EC90E0938B828BFA
:100BF00082EC90E0958B848B86EC90E0978B868BD3
:100C0000118E128E138E148E0895EE0FFF1F059015
:100C1000F491E02D0994CF93DF938230910510F485
:100C200082E090E0E0913702F091380220E030E07D
:100C3000C0E0D0E0309711F1408151814817590749
:100C4000C0F04817590761F482819381209719F009
:100C50009B838A832BC0909338028093370226C0EF
:100C60002115310519F04217530718F49A01BE01F6
:100C7000DF01EF010280F381E02DDCCF211531058A
:100C800009F1281B390B2430310590F412968D910F
:100C90009C9113976115710521F0FB019383828369
:100CA00004C09093380280933702FD01329644C00D
:100CB000FD01E20FF31F81939193225031092D938F
:100CC0003C933AC02091350230913602232B41F4F7
:100CD00020910201309103013093360220933502B6
:100CE00020910001309101012115310541F42DB70A
:100CF0003EB74091040150910501241B350BE09152
:100D00003502F0913602E217F307A0F42E1B3F0BD9
:100D10002817390778F0AC014E5F5F4F241735076D
:100D200048F04E0F5F1F5093360240933502819377
:100D3000919302C0E0E0F0E0CF01DF91CF91089500
:100D40000F931F93CF93DF93009709F48CC0FC019E
:100D500032971382128200913702109138020115E6
:100D6000110581F420813181820F931F209135027A
:100D7000309136022817390779F5F0933602E0935F
:100D8000350271C0D80140E050E0AE17BF0750F403
:100D900012962D913C911397AD012115310509F162
:100DA000D901F3CF9D01DA01338322836081718100
:100DB000860F971F8217930769F4EC012881398108
:100DC000260F371F2E5F3F4F318320838A819B81FF
:100DD00093838283452B29F4F0933802E093370202
:100DE00042C01396FC93EE931297ED0149915991ED
:100DF0009E01240F351FE217F30771F48081918162
:100E0000840F951F029611969C938E9382819381F5
:100E100013969C938E931297E0E0F0E0D80112961F
:100E20008D919C911397009719F0F8018C01F6CFE2
:100E30008D919C9198012E5F3F4F820F931F2091BF
:100E40003502309136022817390769F4309729F4B2
:100E5000109238021092370202C01382128210934D
:100E6000360200933502DF91CF911F910F910895C3
:100E700081E090E0F8940C945F07A1E21A2EAA1B7F
:100E8000BB1BFD010DC0AA1FBB1FEE1FFF1FA2173A
:100E9000B307E407F50720F0A21BB30BE40BF50B37
:100EA000661F771F881F991F1A9469F760957095C0
:100EB000809590959B01AC01BD01CF010895F894F8
:020EC000FFCF62
:100EC200000039028000000000005201CE001B0128
:100ED200F9000D019901564D4450565F317C315F46
:100EE200564D4450560D0A00564D4450455F310050
:100EF2007C005F564D4450450D0A00564D44504308
:0C0F02005F005F564D4450430D0A000094
:00000001FF
