:100000000C9462000C948A000C948A000C94B9063B
:100010000C94B9060C94B9060C948A000C948A00CE
:100020000C948A000C948A000C948A000C948A0028
:100030000C948A000C948A000C948A000C948A0018
:100040000C946F060C948A000C943D060C941706D1
:100050000C948A000C948A000C948A000C948A00F8
:100060000C948A000C948A000000000024002700F1
:100070002A0000000008000201000003040700003D
:1000800000000000000000000000250028002B00F8
:1000900000000000230026002900040404040404D6
:1000A0000404020202020202030303030303010227
:1000B00004081020408001020408102001020408F6
:1000C00010200C0A11241FBECFEFD8E0DEBFCDBF39
:1000D00011E0A0E0B1E0EEEAF9E102C005900D9276
:1000E000A83DB107D9F722E0A8EDB1E001C01D920B
:1000F000A23DB207E1F710E0C2E6D0E004C02197CC
:10010000FE010E94830AC136D107C9F70E94330756
:100110000C94D50C0C940000CF92DF92EF92FF92DA
:100120000F931F93CF93DF936C017A018B01C0E093
:10013000D0E0CE15DF0589F0D8016D918D01D60193
:10014000ED91FC910190F081E02DC6010995892B7C
:1001500011F47E0102C02196ECCFC701DF91CF914F
:100160001F910F91FF90EF90DF90CF900895FC01C9
:10017000918D828D981761F0828DDF01A80FB11DDE
:100180005D968C91928D9F5F9F73928F90E0089502
:100190008FEF9FEF0895FC01918D828D981731F0BC
:1001A000828DE80FF11D858D90E008958FEF9FEF10
:1001B0000895FC01918D228D892F90E0805C9F4FE6
:1001C000821B91098F739927089581E392E00E9421
:1001D000D90021E0892B09F420E0822F0895FC0149
:1001E000848DDF01A80FB11DA35ABF4F2C91848DC0
:1001F00090E001968F739927848FA689B7892C93F5
:10020000A089B1898C9180648C93938D848D98138F
:1002100006C00288F389E02D80818F7D8083089558
:10022000EF92FF920F931F93CF93DF93EC0181E046
:10023000888F9B8D8C8D981305C0E889F989808102
:1002400085FD24C0F62E0B8D10E00F5F1F4F0F733E
:100250001127E02E8C8DE8120CC00FB607FCFACFE8
:10026000E889F989808185FFF5CFCE010E94EF00F2
:10027000F1CF8B8DFE01E80FF11DE35AFF4FF082A5
:100280000B8FEA89FB898081806207C0EE89FF8934
:100290006083E889F98980818064808381E090E0CF
:1002A000DF91CF911F910F91FF90EF900895CF9321
:1002B000DF93EC01888D8823C9F0EA89FB8980816E
:1002C00085FD05C0A889B9898C9186FD0FC00FB640
:1002D00007FCF5CF808185FFF2CFA889B9898C9181
:1002E00085FFEDCFCE010E94EF00E7CFDF91CF91E8
:1002F000089580E090E0892B29F00E94E5008111AB
:100300000C9400000895833081F028F4813099F036
:100310008230A1F008958730A9F08830B9F0843098
:10032000D1F4809180008F7D03C0809180008F7711
:1003300080938000089584B58F7702C084B58F7D47
:1003400084BD08958091B0008F7703C08091B00084
:100350008F7D8093B0000895CF93DF93282F30E0F6
:10036000F901EE58FF4F8491F901E255FF4FD49106
:10037000F901E656FF4FC491CC2391F081110E9400
:100380008301EC2FF0E0EE0FFF1FE057FF4FA59128
:10039000B491EC91ED2381E090E021F480E002C083
:1003A00080E090E0DF91CF9108951F93CF93DF938A
:1003B000282F30E0F901EE58FF4F8491F901E25502
:1003C000FF4FD491F901E656FF4FC491CC23C9F0F9
:1003D000162F81110E948301EC2FF0E0EE0FFF1F1A
:1003E000EA57FF4FA591B4918FB7F894111105C04A
:1003F0009C91ED2FE095E92302C0EC91ED2BEC935D
:100400008FBFDF91CF911F910895CF93DF9390E03D
:10041000FC01E255FF4F2491FC01E656FF4F849109
:10042000882361F190E0880F991FFC01E859FF4F84
:10043000C591D491FC01EA57FF4FA591B491611188
:1004400009C09FB7F8948881209582238883EC9116
:100450002E230BC0623061F49FB7F8943881822F4D
:10046000809583238883EC912E2B2C939FBF06C00D
:100470008FB7F894E8812E2B28838FBFDF91CF911F
:1004800008953FB7F89480911D0290911E02A091AB
:100490001F02B091200226B5A89B05C02F3F19F07E
:1004A0000196A11DB11D3FBFBA2FA92F982F8827F4
:1004B000820F911DA11DB11DBC01CD0142E0660F4F
:1004C000771F881F991F4A95D1F708958F929F92A1
:1004D000AF92BF92CF92DF92EF92FF926B017C01BD
:1004E0000E9441024B015C01C114D104E104F104FA
:1004F000F1F00E944102DC01CB0188199909AA0997
:10050000BB09883E9340A105B10570F321E0C21AF2
:10051000D108E108F10888EE880E83E0981EA11C3E
:10052000B11CC114D104E104F10419F7DDCFFF902F
:10053000EF90DF90CF90BF90AF909F908F900895F5
:10054000CF92DF92EF92FF920F931F93CF93DF939F
:10055000EC0161E08E810E94D50160E08A810E94F9
:10056000D5018FE090E00197F1F761E08A810E9468
:10057000D50160E08E810E94D5010FE010E0C12C12
:10058000D12C8FE0E82EF12C88810E94AC01AC01C7
:10059000990F660B770B002E04C0440F551F661F82
:1005A000771F0A94D2F7C42AD52A61E08C810E9471
:1005B000D501C7010197F1F760E08C810E94D50158
:1005C0000150110908F7C601DF91CF911F910F91DA
:1005D000FF90EF90DF90CF9008952091230230910B
:1005E00024022817390771F4909121028091220288
:1005F000981741F0E0912102F0E0E852FE4F80812F
:1006000090E008958FEF9FEF089508951F93CF9383
:10061000DF93DC015C962D913C915D9721153105AE
:1006200039F481E090E013969C938E9312973DC02D
:100630005196ED91FC91529750969C915097892F2D
:1006400080951FB75E964C915E9741FB772770F9B6
:1006500041FD6095F8944081772311F0492B01C04A
:1006600048234083E9012197F1F748E0508160FF7A
:1006700002C0592B01C058235083E9012197F1F79B
:100680006695415099F7772321F0908189238083E3
:1006900003C08081982B90831FBF5C968D919C91A5
:1006A0005D970197F1F721E030E0C901DF91CF912B
:1006B0001F910895209123023091240228173907B1
:1006C00071F4809122022091210290E0805C9F4F82
:1006D000821B910960E470E00E94390A089580E06D
:1006E00090E00895209123023091240228173907C1
:1006F000B9F49091210280912202981789F0E0913B
:100700002102F0E0E852FE4F80812091210230E08A
:100710002F5F3F4F2F7333272093210290E00895DE
:100720008FEF9FEF08956115710579F0FB0101903E
:100730000020E9F73197AF01461B570BDC01ED9123
:10074000FC910280F381E02D099480E090E008950F
:10075000CF93DF93BC0181E392E00E949303EC010D
:1007600066E271E081E392E00E9493038C0F9D1F8B
:10077000DF91CF9108950F931F93CF93DF93EC01F7
:10078000E881F981DB0114964D915C9115976D918B
:100790007C910280F381E02D09958C0166E271E085
:1007A000CE010E949303800F911FDF91CF911F9183
:1007B0000F9108950F931F93CF93DF93EC018881DE
:1007C0009981009729F02A813B812617370788F401
:1007D0008B016F5F7F4F0E94B60B009761F099838A
:1007E00088831B830A832C813D81232B11F4FC0118
:1007F000108281E001C080E0DF91CF911F910F91C5
:100800000895EF92FF920F931F93CF93DF93FC0114
:10081000248135816115710511F480E019C04115FD
:100820005105A9F07B01EC018A01020F131FB801E9
:100830000E94DA03882389F3288139818C819D8184
:10084000B701820F931F0E94970C1D830C8381E0D8
:10085000DF91CF911F910F91FF90EF900895611557
:10086000710551F0FB0101900020E9F73197AF01CC
:10087000461B570B0C94010480E00895CF93DF933F
:10088000EC0188819981009711F00E941E0B19825A
:1008900018821D821C821B821A82DF91CF910895DB
:1008A000EF92FF920F931F93CF93DF93EC01198286
:1008B00018821B821A821D821C826115710521F12A
:1008C0008B01FB0101900020E9F731977F01E61AC7
:1008D000F70AB7010E94DA03811109C0CE01DF9146
:1008E000CF911F910F91FF90EF900C943E04FD82E9
:1008F000EC82B80188819981DF91CF911F910F918E
:10090000FF90EF900C94970CDF91CF911F910F9176
:10091000FF90EF9008950E94800C4F925F926F922B
:100920007F929F92AF92BF92CF92DF92EF92FF920F
:100930000F931F93CF93DF93CDB7DEB7A1970FB679
:10094000F894DEBF0FBECDBF5B0189E291E00E944B
:10095000A803C12CD12C7601C3949AE0492E512CC6
:10096000612C712C9C2C65E371E081E392E00E9484
:10097000930319A2A70196018E010F5D1F4FCA01B3
:10098000B901A30192010E944D0A605DF8016293D2
:100990008F01211531054105510589F7BF0181E31B
:1009A00092E00E94930362E571E081E392E00E948D
:1009B0009303C50102C0969587959A94E2F780FF4C
:1009C00003C06CE371E002C061E471E081E392E096
:1009D0000E94930366E271E081E392E00E94930338
:1009E000FFEFCF1ADF0AEF0AFF0A80E1C816D10431
:1009F000E104F10409F0B6CF66E271E081E392E030
:100A00000E949303A1960FB6F894DEBF0FBECDBF30
:100A1000DF91CF911F910F91FF90EF90DF90CF90DA
:100A2000BF90AF909F907F906F905F904F90089590
:100A30006F927F928F929F92AF92BF92CF92DF92EE
:100A4000EF92FF920F931F93CF93DF93CDB7DEB753
:100A500062970FB6F894DEBF0FBECDBF5C016B018D
:100A600065E471E0CE0107960E945004D6018D9195
:100A70009C91895B9E4F0E94A803F6010081118121
:100A80007801F1E0EF1AF10801501048000F111F32
:100A9000F7FC9FC068E271E0CE0101960E9450040D
:100AA000D6011696ED91FC911797E00FF11F20816A
:100AB00031812330310541F17CF421303105D9F009
:100AC00022303105D1F56BE571E0CE0101960E942F
:100AD0002F0481E691E029C024303105F1F0253062
:100AE000310559F567E871E0CE0101960E942F04A7
:100AF0008FE891E01AC065E571E0CE0101960E9491
:100B00002F0485E591E011C069E671E0CE01019600
:100B10000E942F0481E791E008C06BE771E0CE01ED
:100B200001960E942F0480E891E00E94A80369E1E9
:100B300070E080E090E00E9466026F81788585E435
:100B400091E00E948E0C892B91F169E971E0CE0150
:100B50000D960E9450044D815E8169817A81CE019B
:100B60000D960E940104811104C0CE010D960E94D1
:100B70003E048D849E848114910449F069887A88AA
:100B8000B301CE0101960E94DA03811105C0CE01A6
:100B900001960E943E0407C07E826D82B401898165
:100BA0009A810E94970C8D859E850E941E0B4D8117
:100BB0005E8169817A81CE0107960E940104898154
:100BC0009A810E941E0BB1E0EB1AF1080250110944
:100BD0005FCF69E771E0CE0107960E942F04BE0146
:100BE000695F7F4F81E392E00E94BB03BE01695FB2
:100BF0007F4FF501848195810E94BB038F81988589
:100C00000E941E0B62960FB6F894DEBF0FBECDBFDA
:100C1000DF91CF911F910F91FF90EF90DF90CF90D8
:100C2000BF90AF909F908F907F906F9008951F928C
:100C30000F920FB60F9211242F933F934F935F9310
:100C40006F937F938F939F93AF93BF93EF93FF9394
:100C500081E392E00E94EF00FF91EF91BF91AF918D
:100C60009F918F917F916F915F914F913F912F91C4
:100C70000F900FBE0F901F9018951F920F920FB6F6
:100C80000F9211242F938F939F93EF93FF93E091F3
:100C90004102F09142028081E0914702F0914802C6
:100CA00082FD12C0908180914A028F5F8F732091E4
:100CB0004B02821751F0E0914A02F0E0EF5CFD4FE9
:100CC000958F80934A0201C08081FF91EF919F919F
:100CD0008F912F910F900FBE0F901F9018951F921C
:100CE0000F920FB60F9211242F933F938F939F93E0
:100CF000AF93BF938091190290911A02A0911B02A9
:100D0000B0911C023091180223E0230F2D3720F4FC
:100D10000196A11DB11D05C026E8230F0296A11D55
:100D2000B11D209318028093190290931A02A09388
:100D30001B02B0931C0280911D0290911E02A09193
:100D40001F02B09120020196A11DB11D80931D02CA
:100D500090931E02A0931F02B0932002BF91AF9107
:100D60009F918F913F912F910F900FBE0F901F90E9
:100D700018951F920F920FB60F9211242F933F9345
:100D80004F935F936F937F938F939F93AF93BF9393
:100D9000EF93FF93E0912302F0912402309709F43E
:100DA00051C0968DA685B785858591FF04C09C911D
:100DB000892329F447C09C91892309F043C0A38962
:100DC000B4899C918589809589238C93868997899C
:100DD0000197F1F7608D718DA685B785558538E04F
:100DE00020E0CB010197F1F7822F90E09595879550
:100DF000282F4C91452309F02068315091F7868DBA
:100E000081FD20958091220290E001968F739927B1
:100E100030912102381749F0A0912202B0E0A85287
:100E2000BE4F2C938093220203C0868D8160868FF3
:100E3000828D938D0197F1F7A389B4899C9185895F
:100E4000892B8C93FF91EF91BF91AF919F918F91DF
:100E50007F916F915F914F913F912F910F900FBEB6
:100E60000F901F901895CF93DF93CDB7DEB72A97D9
:100E70000FB6F894DEBF0FBECDBF789484B5826004
:100E800084BD84B5816084BD85B5826085BD85B52E
:100E9000816085BD80916E00816080936E001092AC
:100EA0008100809181008260809381008091810027
:100EB00081608093810080918000816080938000B8
:100EC0008091B10084608093B1008091B000816016
:100ED0008093B00080917A00846080937A00809142
:100EE0007A00826080937A0080917A00816080939A
:100EF0007A0080917A00806880937A001092C10015
:100F0000E0914102F091420282E08083E0913D0253
:100F1000F0913E021082E0913F02F091400283E3A3
:100F2000808310924902E0914502F091460286E0EA
:100F30008083E0914302F09144028081806180834C
:100F4000E0914302F0914402808188608083E091C7
:100F50004302F0914402808180688083E0914302E3
:100F6000F091440280818F7D808386E090E00E9432
:100F7000890A7C0188E090E0D70111969C938E93BA
:100F800089E090E013969C938E9312978FE190E006
:100F90000E94890A8C01FC011382128288EE93E080
:100FA000A0E0B0E084839583A683B7838AE191E0D3
:100FB00091838083178A168A118E108E138E128E5B
:100FC000158E148E668D6E7F6D7F668F669561704F
:100FD00081E0682789E00E94D50161E089E00E94F4
:100FE0000502E7EBF0E0E491D8015096EC93E3EAD8
:100FF000F0E0E491F0E0EE0FFF1FEA57FF4F85911C
:101000009491F801928B818B60E088E00E94050248
:10101000D8015E968C9181FD04C061E088E00E9459
:10102000D50188E0F8018487E6EBF0E0E491D8018F
:101030001D96EC93E2EAF0E0E491F0E0EE0FFF1F82
:10104000E057FF4F85919491F80197878687D701E4
:1010500015961C930E93149785E690E0958F848FD8
:1010600021E230E0378B268B23E630E0318F208F72
:1010700022E430E0338F228F20916800216020939A
:1010800068002BE630E0348B238B21E0258B019721
:10109000F1F7828D938D892B49F1E0912302F09134
:1010A0002402E017F10711F1309739F0A389B489D0
:1010B0009C918589809589238C93D8015E968C912B
:1010C0005E978E7F5E968C935E97109222021092AE
:1010D000210210932402009323025396ED91FC9178
:1010E0005497908155968C91892B8083F09226029B
:1010F000E092250288E090E00E94890A8C0185E058
:1011000090E0F8019183808383E090E09383828371
:1011100084E090E09583848382E090E097838683E7
:1011200060E085E00E94050261E0D80112968C9192
:101130000E94050261E0F80184810E94050261E0DD
:10114000D80116968C910E94050260E0F801848116
:101150000E94D50161E0D80112968C910E94D501C0
:101160001093300200932F0282E090E00E94890ADF
:101170007C0186E090E0F7019183808362E00E9429
:101180000502F0922A02E092290282E090E00E9499
:10119000890A7C0187E090E0D7018D939C9361E000
:1011A0000E940502F0922802E0922702C8010E94E4
:1011B000A00290932C0280932B02BC01C8010E94D4
:1011C0008D0480912F02909130020E94A002909392
:1011D0002E0280932D0220912B0230912C02821737
:1011E0009307B1F08BE991E00E94A80360912D0272
:1011F00070912E0280912F02909130020E948D04F6
:1012000080912D0290912E0290932C0280932B02BC
:10121000E0912902F0912A0280810E94AC01892B81
:10122000B1F418C0BE016F5F7F4F8091250290918D
:1012300026020E9418058F819885009711F00E9460
:101240001E0B0115110519F0C8010E941E0B0E940A
:101250007901B7CF009127021091280261E0F801CF
:1012600080810E94D50164EF71E080E090E00E94EF
:10127000660260E0D8018C910E94D50140902D0259
:1012800050902E0282E0282E312C93E0E92EF12C92
:1012900000E010E0612C712CA12CB12CC12CD12CC0
:1012A00097012250310989E291E029873A870E940B
:1012B000A803C701019629853A85281739070CF03C
:1012C00045C0C20102C0969587952A95E2F7920122
:1012D000022C02C0369527950A94E2F780FF12C0CF
:1012E00020FF08C087EB91E00E94A8038824839424
:1012F000912C2CC08DEB91E00E94A803E2E08E2E91
:10130000912C24C0C2010E2C02C0969587950A9498
:10131000E2F720FF0AC080FDE5CF83EC91E00E9458
:10132000A80373E0872E912C11C080FF08C08AECBF
:1013300091E00E94A80364E0862E912C07C08FECF8
:1013400091E00E94A80355E0852E912CCA14DB047D
:1013500098F1AA24A394B12C062C02C0AA0CBB1CA1
:101360000A94E2F7B1E8AB16BFE3BB0620F4C5016F
:10137000880F991F02C08FEF9FEF0E94890AAC016E
:10138000D801FC0120E030E02C153D0539F08D91AD
:101390009D91819391932F5F3F4FF6CF01151105DA
:1013A00039F0C80149875A870E941E0B5A85498522
:1013B000EFEF6E1A7E0A8A01F601EE0FFF1FE00FB3
:1013C000F11F91828082FFEFCF1ADF0A83E0E80EDF
:1013D000F11CA3E02A0E311CB2E1EB16F10409F076
:1013E0005FCF85E090E09A8389837E826D82BC82A4
:1013F000AB828AE090E00E94890A8F839887D801A7
:10140000FC01C8010A96A817B90709F40BCF2D9162
:101410003D9121933193F7CFE1E3F2E01382128201
:1014200088EE93E0A0E0B0E084839583A683B78341
:101430008AE091E09183808385EC90E095878487B2
:1014400084EC90E09787868780EC90E0918B808B8E
:1014500081EC90E0938B828B82EC90E0958B848B77
:1014600086EC90E0978B868B118E128E138E148EE5
:10147000089597FB072E16F4009407D077FD09D046
:101480000E946F0A07FC05D03EF4909581959F4F0E
:101490000895709561957F4F0895A1E21A2EAA1BB9
:1014A000BB1BFD010DC0AA1FBB1FEE1FFF1FA21714
:1014B000B307E407F50720F0A21BB30BE40BF50B11
:1014C000661F771F881F991F1A9469F7609570959A
:1014D000809590959B01AC01BD01CF010895AA1B99
:1014E000BB1B51E107C0AA1FBB1FA617B70710F00F
:1014F000A61BB70B881F991F5A95A9F78095909541
:10150000BC01CD010895EE0FFF1F0590F491E02D71
:101510000994CF93DF938230910510F482E090E03C
:10152000E091D002F091D10220E030E0C0E0D0E0C4
:10153000309711F14081518148175907C0F0481781
:10154000590761F482819381209719F09B838A83E4
:101550002BC09093D1028093D00226C02115310573
:1015600019F04217530718F49A01BE01DF01EF0189
:101570000280F381E02DDCCF2115310509F1281B14
:10158000390B2430310590F412968D919C9113976C
:101590006115710521F0FB019383828304C0909350
:1015A000D1028093D002FD01329644C0FD01E20FCA
:1015B000F31F81939193225031092D933C933AC0AC
:1015C0002091CE023091CF02232B41F420910201D1
:1015D000309103013093CF022093CE02209100017D
:1015E000309101012115310541F42DB73EB74091ED
:1015F000040150910501241B350BE091CE02F091BE
:10160000CF02E217F307A0F42E1B3F0B2817390770
:1016100078F0AC014E5F5F4F2417350748F04E0F4E
:101620005F1F5093CF024093CE028193919302C0EB
:10163000E0E0F0E0CF01DF91CF9108950F931F9389
:10164000CF93DF93009709F48CC0FC01329713828B
:1016500012820091D0021091D1020115110581F47E
:1016600020813181820F931F2091CE023091CF02D1
:101670002817390779F5F093CF02E093CE0271C0B5
:10168000D80140E050E0AE17BF0750F412962D91FC
:101690003C911397AD012115310509F1D901F3CF23
:1016A0009D01DA013383228360817181860F971F48
:1016B0008217930769F4EC0128813981260F371FBF
:1016C0002E5F3F4F318320838A819B819383828366
:1016D000452B29F4F093D102E093D00242C0139637
:1016E000FC93EE931297ED01499159919E01240FBD
:1016F000351FE217F30771F480819181840F951FE4
:10170000029611969C938E938281938113969C935B
:101710008E931297E0E0F0E0D80112968D919C91A3
:101720001397009719F0F8018C01F6CF8D919C91D9
:1017300098012E5F3F4F820F931F2091CE02309170
:10174000CF022817390769F4309729F41092D10293
:101750001092D00202C0138212821093CF02009323
:10176000CE02DF91CF911F910F910895A0E0B0E0DC
:10177000ECEBFBE00C94A20CEC01009721F4CB0104
:101780000E94890AB8C0FC01E60FF71F9C01225095
:101790003109E217F30708F4ACC0D9010D911C918F
:1017A000119706171707B0F00530110508F49FC010
:1017B000C80104978617970708F499C002501109C9
:1017C000061B170B019311936D937C93CF010E941D
:1017D0001E0B8DC05B01A01AB10A4C01800E911E38
:1017E000A091D002B091D10240E050E0E12CF12C68
:1017F000109709F44AC0A815B905D1F56D907C90F1
:101800001197630182E0C80ED11CCA14DB0480F179
:10181000A3014A195B096A0182E0C80ED11C129625
:10182000BC9012971396AC91B5E0CB16D10440F062
:10183000B282A38351834083D9016D937C930AC004
:101840000E5F1F4FC301800F911FF90191838083A9
:10185000EB2DFA2FE114F10431F0D7011396FC932C
:10186000EE93129744C0F093D102E093D0023FC0B0
:101870008D919C9111974817590708F4AC017D018F
:1018800012960D90BC91A02DB3CF8091CE02909175
:10189000CF0288159905E1F446175707C8F48091DF
:1018A000000190910101009741F48DB79EB74091DE
:1018B000040150910501841B950BE817F907C8F442
:1018C000F093CF02E093CE02F901718360830FC0E1
:1018D000CB010E94890A7C01009759F0A801BE0142
:1018E0000E94850CCE010E941E0BC70104C0CE01D0
:1018F00002C080E090E0CDB7DEB7EEE00C94BE0C05
:1019000081E090E0F8940C94D50CFB01DC0102C05E
:1019100001900D9241505040D8F70895FB01DC0131
:101920008D91019080190110D9F3990B0895FB0155
:10193000DC0101900D920020E1F708952F923F9273
:101940004F925F926F927F928F929F92AF92BF92CF
:10195000CF92DF92EF92FF920F931F93CF93DF937B
:10196000CDB7DEB7CA1BDB0B0FB6F894DEBF0FBED8
:10197000CDBF09942A88398848885F846E847D8425
:101980008C849B84AA84B984C884DF80EE80FD8027
:101990000C811B81AA81B981CE0FD11D0FB6F8949D
:0E19A000DEBF0FBECDBFED010895F894FFCF5E
:1019AE000000D20280000000000010018C00D9005F
:1019BE00B700CB0057010000000006038C005A034D
:1019CE007203ED0205030D0A0050696E2053746117
:1019DE007465733A00202050696E2D0048494748BF
:1019EE00004C4F57003C00766563746F722073692C
:1019FE007A653A20004552524F5200524947485498
:101A0E00003C52494748543E00464F5257415244BB
:101A1E00003C464F52574152443E004C45465400FE
:101A2E003C4C4546543E004E4F5448494E47003CB0
:101A3E004E4F5448494E473E002C002A50696E20A6
:101A4E0076616C7565206368616E67652064657488
:101A5E0065637465642A004572726F72005269671D
:101A6E0068740043656E746572004C656674004E52
:081A7E006F7468696E670000D7
:00000001FF
