:100000000C9462000C948A000C948A000C946C048A
:100010000C946C040C946C040C948A000C948A006C
:100020000C948A000C948A000C948A000C948A0028
:100030000C948A000C948A000C948A000C948A0018
:100040000C9422040C948A000C94F0030C94CA03C0
:100050000C948A000C948A000C948A000C948A00F8
:100060000C948A000C948A000000000024002700F1
:100070002A0000000008000201000003040700003D
:1000800000000000000000000000250028002B00F8
:1000900000000000230026002900040404040404D6
:1000A0000404020202020202030303030303010227
:1000B00004081020408001020408102001020408F6
:1000C0001020760611241FBECFEFD8E0DEBFCDBFD3
:1000D00011E0A0E0B1E0EEE4F0E102C005900D9285
:1000E000A436B107D9F722E0A4E6B1E001C01D9221
:1000F000AA35B207E1F710E0C2E6D0E004C02197CC
:10010000FE010E94ED06C136D107C9F70E94E60440
:100110000C9425080C940000CF92DF92EF92FF928E
:100120000F931F93CF93DF936C017A018B01C0E093
:10013000D0E0CE15DF0589F0D8016D918D01D60193
:10014000ED91FC910190F081E02DC6010995892B7C
:1001500011F47E0102C02196ECCFC701DF91CF914F
:100160001F910F91FF90EF90DF90CF900895FC01C9
:10017000918D828D981761F0828DDF01A80FB11DDE
:100180005D968C91928D9F5F9F73928F90E0089502
:100190008FEF9FEF0895FC01918D828D981731F0BC
:1001A000828DE80FF11D858D90E008958FEF9FEF10
:1001B0000895FC01918D228D892F90E0805C9F4FE6
:1001C000821B91098F739927089589EB91E00E9412
:1001D000D90021E0892B09F420E0822F0895FC0149
:1001E000848DDF01A80FB11DA35ABF4F2C91848DC0
:1001F00090E001968F739927848FA689B7892C93F5
:10020000A089B1898C9180648C93938D848D98138F
:1002100006C00288F389E02D80818F7D8083089558
:10022000EF92FF920F931F93CF93DF93EC0181E046
:10023000888F9B8D8C8D981305C0E889F989808102
:1002400085FD24C0F62E0B8D10E00F5F1F4F0F733E
:100250001127E02E8C8DE8120CC00FB607FCFACFE8
:10026000E889F989808185FFF5CFCE010E94EF00F2
:10027000F1CF8B8DFE01E80FF11DE35AFF4FF082A5
:100280000B8FEA89FB898081806207C0EE89FF8934
:100290006083E889F98980818064808381E090E0CF
:1002A000DF91CF911F910F91FF90EF900895CF9321
:1002B000DF93EC01888D8823C9F0EA89FB8980816E
:1002C00085FD05C0A889B9898C9186FD0FC00FB640
:1002D00007FCF5CF808185FFF2CFA889B9898C9181
:1002E00085FFEDCFCE010E94EF00E7CFDF91CF91E8
:1002F000089580E090E0892B29F00E94E5008111AB
:100300000C9400000895833081F028F4813099F036
:100310008230A1F008958730A9F08830B9F0843098
:10032000D1F4809180008F7D03C0809180008F7711
:1003300080938000089584B58F7702C084B58F7D47
:1003400084BD08958091B0008F7703C08091B00084
:100350008F7D8093B00008951F93CF93DF93282F54
:1003600030E0F901EE58FF4F8491F901E255FF4F5B
:10037000D491F901E656FF4FC491CC23C9F0162F52
:1003800081110E948301EC2FF0E0EE0FFF1FEA576E
:10039000FF4FA591B4918FB7F894111105C09C91AE
:1003A000ED2FE095E92302C0EC91ED2BEC938FBF8C
:1003B000DF91CF911F910895CF93DF9390E0FC01DF
:1003C000E255FF4F2491FC01E656FF4F84918823AC
:1003D00061F190E0880F991FFC01E859FF4FC5912A
:1003E000D491FC01EA57FF4FA591B491611109C066
:1003F0009FB7F8948881209582238883EC912E23DF
:100400000BC0623061F49FB7F8943881822F8095D9
:1004100083238883EC912E2B2C939FBF06C08FB72C
:10042000F894E8812E2B28838FBFDF91CF91089518
:10043000AF92BF92CF92DF92EF92FF920F931F93F2
:10044000CF93DF93EC0161E08E810E94AC0160E00C
:100450008A810E94AC018FE090E00197F1F761E0A2
:100460008A810E94AC0160E08E810E94AC010FE0A5
:1004700010E0C12CD12C9FE0E92EF12C288139818C
:100480003327F901EE58FF4F8491F901E255FF4FF0
:10049000A490F901E656FF4FB490BB20A1F0811162
:1004A0000E948301EB2DF0E0EE0FFF1FE057FF4F9E
:1004B000A591B491EC91AE2231E020E009F430E056
:1004C000832F922F02C080E090E0092E000CAA0B2F
:1004D000BB0B002E04C0880F991FAA1FBB1F0A94D4
:1004E000D2F7C82AD92A61E08C810E94AC01C701E9
:1004F0000197F1F760E08C810E94AC010150110975
:1005000008F0BCCFC601DF91CF911F910F91FF90F2
:10051000EF90DF90CF90BF90AF9008952091AF0102
:100520003091B0012817390771F49091AD01809195
:10053000AE01981741F0E091AD01F0E0EC59FE4FAB
:10054000808190E008958FEF9FEF089508951F93A5
:10055000CF93DF93DC015C962D913C915D97211543
:10056000310539F481E090E013969C938E931297B5
:100570003DC05196ED91FC91529750969C915097A9
:10058000892F80951FB75E964C915E9741FB772728
:1005900070F941FD6095F8944081772311F0492B63
:1005A00001C048234083E9012197F1F748E05081D9
:1005B00060FF02C0592B01C058235083E9012197E5
:1005C000F1F76695415099F7772321F090818923BF
:1005D000808303C08081982B90831FBF5C968D9190
:1005E0009C915D970197F1F721E030E0C901DF911F
:1005F000CF911F9108952091AF013091B00128173C
:10060000390771F48091AE012091AD0190E0805CDA
:100610009F4F821B910960E470E00E94A306089539
:1006200080E090E008952091AF013091B00128174B
:100630003907B9F49091AD018091AE01981789F016
:10064000E091AD01F0E0EC59FE4F80812091AD01C9
:1006500030E02F5F3F4F2F7333272093AD0190E0A1
:1006600008958FEF9FEF0895009769F0FC010190C6
:100670000020E9F73197AF01481B590BBC0189EB0A
:1006800091E00C948C0080E090E008950E94200896
:100690004F925F926F927F929F92AF92BF92CF9252
:1006A000DF92EF92FF920F931F93CF93DF93CDB71B
:1006B000DEB7A1970FB6F894DEBF0FBECDBF5B01CA
:1006C00086E291E00E94340382E391E00E943403C9
:1006D000C12CD12C7601C3949AE0492E512C612C67
:1006E000712C9C2C85E391E00E94340319A2A70190
:1006F00096018E010F5D1F4FCA01B901A30192013E
:100700000E94B706605DF80162938F0121153105E3
:100710004105510589F7CF010E9434038CE391E034
:100720000E943403C50102C0969587959A94E2F71A
:1007300080FF03C08FE391E002C084E491E00E9457
:10074000340382E391E00E943403FFEFCF1ADF0A03
:10075000EF0AFF0A80E1C816D104E104F10409F6AA
:1007600082E391E00E943403A1960FB6F894DEBFB5
:100770000FBECDBFDF91CF911F910F91FF90EF90F2
:10078000DF90CF90BF90AF909F907F906F905F90E1
:100790004F9008951F920F920FB60F9211242F932E
:1007A0003F934F935F936F937F938F939F93AF93F9
:1007B000BF93EF93FF9389EB91E00E94EF00FF91CD
:1007C000EF91BF91AF919F918F917F916F915F91C9
:1007D0004F913F912F910F900FBE0F901F90189542
:1007E0001F920F920FB60F9211242F938F939F9306
:1007F000EF93FF93E091C901F091CA018081E091EC
:10080000CF01F091D00182FD12C090818091D20180
:100810008F5F8F732091D301821751F0E091D20145
:10082000F0E0E754FE4F958F8093D20101C08081A4
:10083000FF91EF919F918F912F910F900FBE0F908D
:100840001F9018951F920F920FB60F9211242F939D
:100850003F938F939F93AF93BF938091A901909102
:10086000AA01A091AB01B091AC013091A80123E0A5
:10087000230F2D3720F40196A11DB11D05C026E8D8
:10088000230F0296A11DB11D2093A8018093A901F9
:100890009093AA01A093AB01B093AC018091A40105
:1008A0009091A501A091A601B091A7010196A11D6B
:1008B000B11D8093A4019093A501A093A601B093CC
:1008C000A701BF91AF919F918F913F912F910F9071
:1008D0000FBE0F901F9018951F920F920FB60F9298
:1008E00011242F933F934F935F936F937F938F9335
:1008F0009F93AF93BF93EF93FF93E091AF01F0917C
:10090000B001309709F451C0968DA685B7858585CD
:1009100091FF04C09C91892329F447C09C918923AD
:1009200009F043C0A389B4899C9185898095892366
:100930008C93868997890197F1F7608D718DA685D3
:10094000B785558538E020E0CB010197F1F7822F7C
:1009500090E095958795282F4C91452309F02068C4
:10096000315091F7868D81FD20958091AE0190E008
:1009700001968F7399273091AD01381749F0A091F6
:10098000AE01B0E0AC59BE4F2C938093AE0103C0D2
:10099000868D8160868F828D938D0197F1F7A38973
:1009A000B4899C918589892B8C93FF91EF91BF919C
:1009B000AF919F918F917F916F915F914F913F91F7
:1009C0002F910F900FBE0F901F901895789484B5BB
:1009D000826084BD84B5816084BD85B5826085BD3B
:1009E00085B5816085BD80916E00816080936E00C9
:1009F00010928100809181008260809381008091BB
:100A0000810081608093810080918000816080936B
:100A100080008091B10084608093B1008091B0002B
:100A200081608093B00080917A00846080937A0026
:100A300080917A00826080937A0080917A00816050
:100A400080937A0080917A00806880937A00109277
:100A5000C100E091C901F091CA0182E08083E09178
:100A6000C501F091C6011082E091C701F091C80163
:100A700083E380831092D101E091CD01F091CE010A
:100A800086E08083E091CB01F091CC018081806190
:100A90008083E091CB01F091CC01808188608083DC
:100AA000E091CB01F091CC01808180688083E0915E
:100AB000CB01F091CC0180818F7D808386E090E036
:100AC0000E94F3068C0188E090E0F8019183808316
:100AD00089E090E0938382838FE190E00E94F306A7
:100AE000EC011B821A8288EE93E0A0E0B0E08C83D8
:100AF0009D83AE83BF838AE191E0998388831F8AB7
:100B00001E8A198E188E1B8E1A8E1D8E1C8E6E8D4F
:100B10006E7F6D7F6E8F6695617081E0682789E0DA
:100B20000E94AC0161E089E00E94DC01E7EBF0E0AB
:100B3000E491E88BE3EAF0E0E491F0E0EE0FFF1FD0
:100B4000EA57FF4F859194919A8B898B60E088E0FA
:100B50000E94DC018E8D81FD04C061E088E00E946E
:100B6000AC0188E08C87E6EBF0E0E491ED87E2EA07
:100B7000F0E0E491F0E0EE0FFF1FE057FF4F8591AA
:100B800094919F878E87F801D583C48385E690E092
:100B90009D8F8C8F21E230E03F8B2E8B23E630E05F
:100BA000398F288F22E430E03B8F2A8F2091680014
:100BB0002160209368002BE630E03C8B2B8B21E0FA
:100BC0002D8B0197F1F78A8D9B8D892B09F1E0918F
:100BD000AF01F091B001EC17FD07D1F0309739F07B
:100BE000A389B4899C918589809589238C938E8D66
:100BF0008E7F8E8F1092AE011092AD01D093B00116
:100C0000C093AF01EB89FC8990818D89892B80830A
:100C10001093B2010093B10188E090E00E94F306C6
:100C2000EC0185E090E09983888383E090E09B83EA
:100C30008A8384E090E09D838C8382E090E09F83B0
:100C40008E8360E085E00E94DC0161E08A810E9481
:100C5000DC0161E08C810E94DC0161E08E810E94F8
:100C6000DC0160E08C810E94AC0161E08A810E941D
:100C7000AC01D093B801C093B701CE010E94180215
:100C80009093B4018093B301BC01CE010E9448034C
:100C90008091B7019091B8010E9418029093B6011B
:100CA0008093B5012091B3013091B401821793076D
:100CB000D1F088E491E00E94340382E391E00E9445
:100CC00034036091B5017091B6018091B7019091A4
:100CD000B8010E9448038091B5019091B6019093AC
:100CE000B4018093B3010E947901D2CFE9EBF1E026
:100CF0001382128288EE93E0A0E0B0E084839583B3
:100D0000A683B7838AE091E09183808385EC90E0AD
:100D10009587848784EC90E09787868780EC90E0C5
:100D2000918B808B81EC90E0938B828B82EC90E0B6
:100D3000958B848B86EC90E0978B868B118E128E30
:100D4000138E148E089597FB072E16F4009407D087
:100D500077FD09D00E94D90607FC05D03EF4909596
:100D600081959F4F0895709561957F4F0895A1E2F9
:100D70001A2EAA1BBB1BFD010DC0AA1FBB1FEE1F15
:100D8000FF1FA217B307E407F50720F0A21BB30B60
:100D9000E40BF50B661F771F881F991F1A9469F7DC
:100DA00060957095809590959B01AC01BD01CF0138
:100DB0000895AA1BBB1B51E107C0AA1FBB1FA617A2
:100DC000B70710F0A61BB70B881F991F5A95A9F7F4
:100DD00080959095BC01CD010895EE0FFF1F059001
:100DE000F491E02D0994CF93DF938230910510F4B4
:100DF00082E090E0E0915802F091590220E030E06A
:100E0000C0E0D0E0309711F1408151814817590777
:100E1000C0F04817590761F482819381209719F037
:100E20009B838A832BC0909359028093580226C0DB
:100E30002115310519F04217530718F49A01BE0124
:100E4000DF01EF010280F381E02DDCCF21153105B8
:100E500009F1281B390B2430310590F412968D913D
:100E60009C9113976115710521F0FB019383828397
:100E700004C09093590280935802FD01329644C0F9
:100E8000FD01E20FF31F81939193225031092D93BD
:100E90003C933AC02091560230915702232B41F4E3
:100EA00020910201309103013093570220935602A2
:100EB00020910001309101012115310541F42DB738
:100EC0003EB74091040150910501241B350BE09180
:100ED0005602F0915702E217F307A0F42E1B3F0BC6
:100EE0002817390778F0AC014E5F5F4F241735079C
:100EF00048F04E0F5F1F5093570240935602819364
:100F0000919302C0E0E0F0E0CF01DF91CF9108952E
:100F10000F931F93CF93DF93009709F48CC0FC01CC
:100F200032971382128200915802109159020115D2
:100F3000110581F420813181820F931F2091560287
:100F4000309157022817390779F5F0935702E0934B
:100F5000560271C0D80140E050E0AE17BF0750F410
:100F600012962D913C911397AD012115310509F190
:100F7000D901F3CF9D01DA0133832283608171812E
:100F8000860F971F8217930769F4EC012881398136
:100F9000260F371F2E5F3F4F318320838A819B812D
:100FA00093838283452B29F4F0935902E0935802EE
:100FB00042C01396FC93EE931297ED01499159911B
:100FC0009E01240F351FE217F30771F48081918190
:100FD000840F951F029611969C938E938281938124
:100FE00013969C938E931297E0E0F0E0D80112964E
:100FF0008D919C911397009719F0F8018C01F6CF11
:101000008D919C9198012E5F3F4F820F931F2091ED
:101010005602309157022817390769F4309729F49E
:10102000109259021092580202C013821282109339
:10103000570200935602DF91CF911F910F910895AF
:0E10400081E090E0F8940C942508F894FFCF1E
:10104E0000005A0280000000000010018C00D90040
:10105E00B700CB00570100000000A7028C00FB0276
:10106E0013038E02A60250696E2053746174657369
:10107E003A000D0A00202050696E2D003A200048DB
:10108E00494748004C4F57002A50696E2076616CD4
:10109E007565206368616E67652064657465637449
:0410AE0065642A004B
:00000001FF
